:10000000EAC000000C94B2110C94D9110CC100008C
:100010000AC1000008C1000006C100000C94F915D7
:1000200002C1000000C10000FEC00000FCC00000D2
:10003000FAC000000C945F16F6C00000F4C0000087
:100040000C940012F0C000000C9456140C94881408
:10005000EAC00000E8C00000E6C00000E4C0000004
:100060000C943224E0C000005F1E1F2089208C20E9
:10007000631F961F1E1E3F1E021E66205520622013
:100080008C208C208C20ED1D000000080002010057
:100090000003040700000000000000000102040843
:1000A00010204080010204081020010204081020E2
:1000B000040404040404040402020202020203030E
:1000C0000303030300000000250028002B000200AA
:1000D0001D3A2774694E53E8F5D2CF9C81A6BBCD5B
:1000E000D0F7EAB9A4839E25381F02514C6B76875E
:1000F0009ABDA0F3EEC9D46F7255481B06213C4A45
:1001000057706D3E230419A2BF9885D6CBECF1132E
:100110000E2934677A5D40FBE6C1DC8F92B5A8DE1C
:10012000C3E4F9AAB7908D362B0C11425F78659421
:1001300089AEB3E0FDDAC77C61465B0815322F5902
:1001400044637E2D30170AB1AC8B96C5D8FFE226EA
:100150003B1C01524F6875CED3F4E9BAA7809DEBE2
:10016000F6D1CC9F82A5B8031E3924776A4D50A1E1
:10017000BC9B86D5C8EFF24954736E3D20071A6CBC
:1001800071564B1805223F8499BEA3F0EDCAD735AE
:10019000280F12415C7B66DDC0E7FAA9B4938EF8A4
:1001A000E5C2DF8C91B6AB100D2A3764795E43B29D
:1001B000AF8895C6DBFCE15A47607D2E3314097F7A
:1001C0006245580B16312C978AADB0E3FED9C400B6
:1001D000AD1419151B2311241FBECFEFD8E0DEBFCD
:1001E000CDBF12E0A0E0B1E0E4EAF2E502C0059084
:1001F0000D92A23BB107D9F725E0A2EBB2E001C016
:100200001D92A235B207E1F710E0CBEED0E004C0BA
:100210002197FE010E94BB27C83ED107C9F70E9463
:1002200078250C945029ECCECF92DF92EF92FF927A
:100230006B017C01672B682B692B69F480910A01A3
:10024000811109C080910C0190910D010E949022B2
:1002500081E080930A01C601880F991F880F991FBA
:10026000865F9E4FFF90EF90DF90CF9008950097AC
:1002700081F0FC012181211104C040EA56E861E0CF
:1002800070E0FC01828193810E949A2280E090E0DC
:10029000089588E090E008954F925F926F927F9268
:1002A0008F929F92AF92BF92CF92DF92EF92FF9286
:1002B0000F931F93CF93DF93EC015A01280139016B
:1002C000892B09F441C0402F8A819B810E94192308
:1002D0008A819B81DC01ED91FC910480F581E02D08
:1002E0000995892B29F04501C12CD12C760120C01C
:1002F000F501108211821282138226C0C414D50423
:10030000E604F70421F18A819B81DC01ED91FC91E7
:100310000680F781E02D09958F3FBFEF9B0741F3E2
:10032000FFEFCF1ADF0AEF0AFF0AD4018D934D01C8
:100330008A819B81DC01ED91FC910480F581E02DA7
:100340000995892B21F0DACF88E090E002C080E0A7
:1003500090E0DF91CF911F910F91FF90EF90DF9090
:10036000CF90BF90AF909F908F907F906F905F9055
:100370004F9008958F929F92AF92BF92CF92DF924B
:10038000EF920F931F93CF93DF93EC016A01480123
:100390005901892BE9F08A819B810E949D228A81E3
:1003A0009B81DC01ED91FC910280F381E02DA401A1
:1003B000B60109958A819B81EE2011F060E001C0B1
:1003C00061E00E94A722882331F08250823030F011
:1003D00088E090E005C080E090E002C084E090E01A
:1003E000DF91CF911F910F91EF90DF90CF90BF9051
:1003F000AF909F908F900895009729F0FC01828123
:1004000093810C94992208958F929F92AF92BF92FC
:10041000CF92DF92EF92FF920F931F93CF93DF93D0
:1004200000D000D01F92CDB7DEB7C0908A01D09027
:100430008B01E0908C01F0908D01A70196016091F5
:100440001F057091200580912105909122050E9441
:100450006926882341F0C0921F05D0922005E092C2
:100460002105F092220581E48D83C12CEE24E394D2
:1004700001E010E020E030E0AE014B5F5F4F68E646
:1004800070E080911D0590911E0574DF8D838111B0
:1004900016C0CC24C394E12C02E010E020E030E050
:1004A000AE014F5F5F4F68E670E080911D0590914F
:1004B0001E05F2DE89819A819C838B8302C01B8298
:1004C0001C82909194018B812C8125952595022E7B
:1004D000000C330B9802200D311D1124A0919201C4
:1004E000B09193010E94C1270E946F2620E030E066
:1004F00040E055E30E94232720918E0130918F0127
:1005000040919001509191010E940526609323052E
:1005100070932405809325059093260581E090E053
:100520000E945F1140913D0550913E0560913F054D
:100530007091400580E090E00E945B118090490539
:1005400090904A05A0904B05B0904C0520E030E01B
:1005500040E85FEBC501B4010E946926882331F1B0
:10056000C0903D05D0903E05E0903F05F0904005DD
:10057000A7019601C501B4010E9404264B015C014C
:1005800020E030E040E054E3C701B6010E94232799
:100590009B01AC01C501B4010E941F27181634F05D
:1005A0008EE991E0909328058093270580914D0571
:1005B000882331F08EE991E09093280580932705F8
:1005C0008091410590914205A0914305B091440569
:1005D000BC01CD016F5F7F4F8F4F9F4F60934105EF
:1005E0007093420580934305909344050E946D26C5
:1005F00020914505309146054091470550914805A9
:100600000E94232760933D0570933E0580933F052C
:10061000909340050F900F900F900F900F90DF91E7
:10062000CF911F910F91FF90EF90DF90CF90BF90EF
:10063000AF909F908F900895CF93DF93E7E2F5E01E
:1006400087E2DF011D928A95E9F780E090E0AAE752
:10065000B4E482A393A3A4A3B5A38DEC9CECACEC6F
:10066000BDE3868F978FA0A3B1A383EE90E1A1E6AF
:10067000B7E884839583A683B7838BE19AEBA8E2DE
:10068000B5E580879187A287B38781E593E2A4E1EE
:10069000BAE684879587A687B78780EF97E1A3E7B7
:1006A000B1E1808B918BA28BB38BAAECB2E0B383C8
:1006B000A283C6ECD2E01196DC93CE938EE392E057
:1006C000998388839B838A838BE395E015969C931B
:1006D0008E9314978BE295E013969C938E931297CA
:1006E0008DE395E017969C938E93169710922305B1
:1006F000109224051092250510922605C3E0D5E03E
:1007000080E2DE011D928A95E9F722EB32E084E176
:10071000D9011D928A95E9F7358B248B83E190E00E
:10072000F9019183808384E691E0938382838EE351
:1007300091E0958384838AE291E0978386838EE0BB
:1007400091E09187808722E32E8393E39F8384E364
:10075000888785E3898786E38A8787E38B8788E3B1
:100760008C8789E38D8781E38E8730E33F87888B91
:10077000898B8A8B2B8B8C8B9D8B80918A0190919E
:100780008B01A0918C01B0918D018C8F9D8FAE8FCC
:10079000BF8F81E090E0A0E0B0E089839A83AB83D3
:1007A000BC8340E050E060E070E0CB013DDD9B8F1A
:1007B0008A8F40EA56E861E070E04E8B5F8B688F6D
:1007C000798F55DD81E08D83DF91CF910895809100
:1007D0000305811118C081E0809303058091040511
:1007E00090910505A0910605B09107050197A10517
:1007F000B10549F480910805882329F080911D05F1
:1008000090911E05F9CD0895EF92FF920F931F93DB
:10081000CF93DF93DC01EA01F90114968D919C914D
:10082000159712960D911C911397080F191F288187
:10083000398118964D915C9119974217530728F00A
:100840004D915C911197452B39F17801E21AF30A29
:1008500018964D915C911997481B590B4E0D5F1DD1
:100860004617570794F1A901460F571F4017510724
:10087000E0F0F182E082338322836E197F09758371
:100880006483161617061CF4382F292F02C030E097
:1008900020E03683278313C018968D919C91199779
:1008A000821B930B8617970784F0718360833383D1
:1008B0002283158214821782168288819981680F9B
:1008C000791F7983688380E001C081E0DF91CF9157
:1008D0001F910F91FF90EF900895CF92DF92EF92CA
:1008E000FF92CF93DF936B017C0184E48C9DE00148
:1008F0008D9DD00D1124CA52DD4F8AA99BA9009766
:1009000021F00E949F281BAA1AAA84E48C9DF00162
:100910008D9DF00D1124EA52FD4F86A997A90097ED
:1009200011F00E949F2884E48C9DF0018D9DF00DB4
:100930001124EA52FD4F138A128A168A178A108EE2
:10094000118E128E138E148E158E168E178E10A287
:1009500011A281E090E093A382A315A214A216A293
:1009600017A210A611A613A612A615A614A616A6BF
:1009700017A610AA11AA13AA12AA15AA14AA17AA8E
:1009800016AA11AE10AE12AE13AE14AE15AEDF0144
:10099000DE961D921D921D921C921397EE5BFF4FE7
:1009A00011821082DF91CF91FF90EF90DF90CF9076
:1009B00008950F931F93CF93DF93EB01DC018D918B
:1009C0009C91FC01A681B781E881F98123E0EE0FBB
:1009D000FF1F2A95E1F712962D913C911397E20F94
:1009E000F31F00811181AC85BD859D01220F331F4E
:1009F000DC0112968D919C911397D901A80FB91F14
:100A00008D919C9124813581232B19F461E070E054
:100A100002C062E070E0689F9001699F300D789F8E
:100A2000300D112488859985289FB001299F700D6C
:100A3000389F700D1124EC81FD812E9FC0012F9FE6
:100A4000900D3E9F900D1124800F911FFA0191830C
:100A5000808373836283DF91CF911F910F910895FB
:100A60002F923F924F925F926F927F928F929F92BE
:100A7000AF92BF92CF92DF92EF92FF920F931F93AC
:100A8000CF93DF9300D000D000D0CDB7DEB7DC012C
:100A90001496ED91FC9115970190F081E02D8085E1
:100AA00091859A838983A281B381BC83AB83FB0147
:100AB00081909190A190B1908F01C12CD12C7601A1
:100AC000C814D904EA04FB040CF05FC0D8011496E2
:100AD0004D905D906D907C90179718964D915D911B
:100AE0006D917C911B97F8017096FE83ED83F80160
:100AF000A081B18183E0AA0FBB1F8A95E1F7E9814C
:100B0000FA8182819381A80FB91F2D903C90119793
:100B1000F80124853585220F331F8B819C81280F96
:100B2000391FF9010081118114968D919C911597BF
:100B3000892B19F481E090E002C082E090E0809F70
:100B40009001819F300D909F300D1124249F8001D2
:100B5000259F100D349F100D1124249DC001259D4B
:100B6000900D349D900D1124A8016D817E81820D20
:100B7000931D0E9437298D819E81080F191F9FEFB9
:100B8000C91AD90AE90AF90A9BCF26960FB6F89432
:100B9000DEBF0FBECDBFDF91CF911F910F91FF90B0
:100BA000EF90DF90CF90BF90AF909F908F907F900D
:100BB0006F905F904F903F902F900895CF93DF9369
:100BC000DB01AB56BE4F2C91222369F024E4269F13
:100BD000F001279FF00D1124EA52FD4FEF01199209
:100BE0002A95E9F71C9224E4269FF001279FF00D37
:100BF0001124EA52FD4F1482158216821782118643
:100C0000108613861286118A108A17861686DF913F
:100C1000CF9163CE2F923F924F925F926F927F92CD
:100C20008F929F92AF92BF92CF92DF92EF92FF92FC
:100C30000F931F93CF93DF93CDB7DEB728970FB6EF
:100C4000F894DEBF0FBECDBF6B017C011A0184E4B6
:100C50008C9D90018D9D300D11242A523D4FF9013C
:100C600084819581A681B781892B8A2B8B2B09F4EE
:100C7000B8C0A12CB12C412C512C320138872F83C4
:100C8000C90104969A838983D9011896BC83AB83E2
:100C9000E981FA8180819181A281B3814816590648
:100CA0006A067B0694F5AB81BC81ED91FC91EA0D5F
:100CB000FB1D228133818901812C912C82149304A4
:100CC000C4F4D801ED91FC91309769F0848195814D
:100CD0002D833E830E949F28F801808191810E948C
:100CE0009F283E812D81FFEF8F1A9F0A0E5F1F4FB5
:100CF000E5CFC9010E949F288FEF481A580A680A59
:100D0000780A94E0A90EB11CC3CFAF81B8851896BC
:100D10008D919C9119970E949F28EF81F88582857B
:100D20009385892B59F1A12CB12C812C912C84E431
:100D30008C9D80018D9D100D112400521D4F821439
:100D4000930484F4D801ED91FC91EA0DFB1D84819C
:100D500095810E949F28BFEF8B1A9B0AEEE0AE0E92
:100D6000B11CEDCF84E48C9DF0018D9DF00D11241C
:100D7000EA52FD4F828593850E949F2884E48C9DD2
:100D800090018D9D300D112489010A521D4FD8010B
:100D900050968D919C9151970E949F28F8018685CD
:100DA00097850E949F28C701B60197DDC701B6014C
:100DB00028960FB6F894DEBF0FBECDBFDF91CF915E
:100DC0001F910F91FF90EF90DF90CF90BF90AF9069
:100DD0009F908F907F906F905F904F903F902F905B
:100DE000EDCE28960FB6F894DEBF0FBECDBFDF91D3
:100DF000CF911F910F91FF90EF90DF90CF90BF9018
:100E0000AF909F908F907F906F905F904F903F90AA
:100E10002F90089524E4269FF001279FF00D1124C0
:100E2000EA52FD4F828993890497029758F485E02E
:100E300090E0938B828B8FEF9FEFDC01828F938FFB
:100E4000A48FB58F08952F923F924F925F926F9229
:100E50007F928F929F92AF92BF92CF92DF92EF924A
:100E6000FF920F931F93CF93DF93CDB7DEB7E09739
:100E70000FB6F894DEBF0FBECDBF9AA389A31B01A6
:100E80006A012801390184E4849D8001859D100D4B
:100E9000112498012A523D4F7901D9014D925D925A
:100EA0006D927C921397AB01C301B201B3DEF801DE
:100EB000E652FD4FD6014D915D916D917D918D0171
:100EC000CA01408351836283738364E070E00E94AF
:100ED000F027F70191878087892B09F49FC11E8E27
:100EE0001D8E198E1A8E1B8E1C8EF8A2EF8E970106
:100EF0002C5F3F4F38A72FA32C5F3F4F3AA729A75E
:100F0000EFA1F8A580819181A281B381298D3A8DCD
:100F10004B8D5C8D281739074A075B070CF0E7C03B
:100F2000A9A5BAA58D919C912D8D3E8D280F391FB5
:100F30003A8B298BD801ED91FC91EE0FFF1FA9A1EF
:100F4000BAA18D919C91E80FF91F80819181F901DF
:100F500091838083D80114962D913D914D915C91A0
:100F600017972BA33CA34DA35EA3085F1F4F62E01E
:100F700070E0C1010E94F027E989FA899383828396
:100F8000892B09F44BC11D8A1E8A1F8A188E2D8950
:100F90003E894F89588D8BA19CA1ADA1BEA1281778
:100FA00039074A075B070CF08FC0D801ED90FC9021
:100FB000EE0CFF1CE989FA89C280D380CE0CDF1CBD
:100FC00068E070E081E090E00E94F027D6018D9308
:100FD0009C93E989FA8982819381FC01EE0DFF1DC2
:100FE000C080D180C114D10409F418C1F8018481F2
:100FF0009581A681B781F60180839183A283B38313
:10100000085F1F4F181619061A061B0634F01C8AB3
:101010001B8A812C912C54010CC064E070E00E946A
:10102000F027D60115969C938E931497892B79F708
:10103000F5C0F60180819181A281B381881699065D
:10104000AA06BB06A4F5F601E480F5802B893C894D
:10105000E20EF31EF801DE01119680E101900D927F
:101060008A95E1F7005F1F4FA701BE016F5F7F4FB9
:10107000A9A1BAA114968D919C9115979ADCF601BD
:1010800026813781D70112968D919C911397820FFB
:10109000931F97838683BFEF8B1A9B0AAB0ABB0A09
:1010A0002B893C892C5F3F4F3C8B2B8BC2CF2D89EA
:1010B0003E894F89588D2F5F3F4F4F4F5F4F2D8B8C
:1010C0003E8B4F8B588F63CF298D3A8D4B8D5C8D26
:1010D0002F5F3F4F4F4F5F4F298F3A8F4B8F5C8F62
:1010E0002D8D3E8D2C5F3F4F3E8F2D8F09CF6EE0B3
:1010F00070E0C1010E94F027AF8DB8A11B969C93B0
:101100008E931A97812C912CA12CB12CC12CD12C0F
:1011100024E4249DC001259D900D11249C012052A2
:101120003D4F3A8B298B21E030E0A214B3040CF040
:101130004DC0D8014D915D916D917D918D01E989F1
:10114000FA89E080F180E80CF91C77FD67C0D701CF
:1011500011963C932E934115510561057105A9F037
:10116000CA012FA738AB4BA75CA76DA77EA70E942B
:101170000A28F701958384832FA538A94BA55CA580
:101180006DA57EA5892B31F449C0D70115961C9217
:101190001E921497F701538342838481958197832C
:1011A0008683918780871386128681E090E0452BA5
:1011B000462B472B11F480E090E0C80ED91EFFEFBC
:1011C000AF1ABF0A4EE0840E911CAFCF84E4849D19
:1011D0008001859D100D11240A521D4FD8011D96C6
:1011E0001C921E921C97C60133E0880F991F3A95F6
:1011F000E1F70E940A28F801918B808B892B71F00E
:10120000C601880F991F0E940A28D8011F969C9337
:101210008E931E97892B11F080E005C0A101C301B8
:10122000B201F8DC81E0E0960FB6F894DEBF0FBEA5
:10123000CDBFDF91CF911F910F91FF90EF90DF9085
:10124000CF90BF90AF909F908F907F906F905F9066
:101250004F903F902F9008952F923F924F925F9220
:101260006F927F928F929F92AF92BF92CF92DF92B6
:10127000EF92FF920F931F93CF93DF93CDB7DEB71B
:1012800068970FB6F894DEBF0FBECDBF9C8B8B8BDB
:10129000DB0149015A0124E4289DC001299D900DDC
:1012A00011249C012A523D4F79012D913C911197B7
:1012B000F701358B248BFC01E451FD4F14964D91C1
:1012C0005D916D917C911797408351836283738305
:1012D000FC01E051FD4F18964D915D916D917C910F
:1012E0001B974083518362837383FC01EC50FD4F55
:1012F0001C964D915D916D917C911F974083518318
:1013000062837383FC01EC5FFC4F50965C915097B5
:1013100051964C91519752963C91529753962C91DD
:10132000539750834183328323838D010C5E1F4F7B
:10133000852F942F181619060CF068C0880F991F76
:10134000880F991F0E940A28D701D3969C938E93E9
:10135000D297892B09F4BCC0212C312C412C512C63
:1013600032019701225D3F4F3E8B2D8B2C5F3F4F0B
:10137000388F2F8B2E5F3F4F3A8B298BB301A20101
:101380002FEF421A520A620A720AED89FE898081A1
:101390009181A281B381481759076A077B074CF5F1
:1013A000AF89B88DCD90DC90C20CD31CF801DE0162
:1013B000119680E101900D928A95E1F7005F1F4F31
:1013C000A601BE016F5F7F4FEB89FC898481958107
:1013D000F0DAA989BA898D919C911197F601228141
:1013E0003381820F931F8D939C93F4E02F0E311C59
:1013F000C5CFD701D4968D919C91D5970E940A288C
:10140000F70197AB86AB892B09F462C0F8018081A4
:101410009181A281B38124E4289DF001299DF00DE2
:101420001124EA52FD4FAC01BD014D7F21E030E0B7
:10143000452B462B472B11F020E030E033A322A3AD
:1014400024E4289DF001299DF00D1124EA52FD4F5E
:101450000197A109B10921E030E00297A105B1058A
:1014600010F020E030E035A324A384E4889DF0014F
:10147000899DF00D1124CF0184509D4FD801149601
:101480004D915D916D917C911797DC014D935D932A
:101490006D937C931397EA52FD4F868D978DA0A193
:1014A000B1A1B7FF10C0B095A095909581959F4FC1
:1014B000AF4FBF4F82AF93AFA4AFB5AF168E178EAD
:1014C00010A211A20AC012AE13AE14AE15AE05C022
:1014D000C501B40102DA81E001C080E068960FB670
:1014E000F894DEBF0FBECDBFDF91CF911F910F915A
:1014F000FF90EF90DF90CF90BF90AF909F908F9034
:101500007F906F905F904F903F902F900895CF9273
:10151000DF92EF92FF92CF93DF9310925E0324E469
:10152000269FF001279FF00D1124EA52FD4F15A6CA
:1015300014A620E030E0C12CD12CDF011A96C1E0C6
:10154000D0E0C416D506D4F4ED91FC911197E20FCA
:10155000F31FE280F3801E141F0454F4E480F5802E
:10156000F782E682F186E08613861286D183C083F5
:10157000EFEFCE1ADE0A225F3F4FE3CF24E4269F2F
:10158000F001279FF00D1124EA52FD4F13A612A679
:1015900011AE10AEDF01DE961D921D921D921C92BF
:1015A000139782E090E0938B828BDF91CF91FF9035
:1015B000EF90DF90CF90089524E4269FF001279FBD
:1015C000F00D1124EA52FD4F138A128A23CB24E432
:1015D000269FF001279FF00D1124EA52FD4F8289CA
:1015E000938981309105C8F08530910518F00597F1
:1015F00069F008958FEF9FEFDC01828F938FA48FA6
:10160000B58F85E090E0938B828B08958FEF9FEFED
:10161000DC01828F938FA48FB58F089524E4249FDB
:10162000F001259FF00D1124EA52FD4F2EE0AC0190
:10163000249FC001259F900D11240284F385E02D85
:10164000E80FF91F81E080935E038285938591877F
:101650008087408551852681378181E090E042175F
:10166000530711F080E090E09183808308952F92DA
:101670003F924F925F926F927F928F929F92AF9222
:10168000BF92CF92DF92EF92FF920F931F93CF936F
:10169000DF93CDB7DEB7C255D1090FB6F894DEBFE0
:1016A0000FBECDBF21969FAF8EAF21974BA75CA7F2
:1016B0006DA77EA74801590184E4889D8001899D1A
:1016C000100D1124F801EA52FD4F2285338527962B
:1016D0003FAF2EAF279782899389029709F060C1A7
:1016E00086A597A5A0A9B1A9892B8A2B8B2B29F4B4
:1016F00084E090E0938B828B53C1848995892196F5
:101700004EAD5FAD21974817590709F049C186A929
:1017100097A99AAB89AB1EAE1DAE19AE1AAE1BAE21
:101720001CAE8F01DF019E962996BFAFAEAF299701
:10173000F2962B96FFAFEEAF2B979801285C3F4FA8
:101740002D963FAF2EAF2D97A8014A5D5F4F2F9684
:101750005FAF4EAF2F97C801829661969FAF8EAF55
:1017600061971A976396BFAFAEAF63972996EEADB8
:10177000FFAD299780819181A281B38129AD3AADD6
:101780004BAD5CAD281739074A075B070CF0E7C083
:101790002B96EEADFFAD2B97808191812DAD3EADA7
:1017A000280F391F3EAB2DABD90112960D90BC917D
:1017B000A02D2396BFAFAEAF2397B695A795B6954C
:1017C000A7952596BFAFAEAF25972D96EEADFFAD91
:1017D0002D9780819181892B09F496C02F96AEAD0B
:1017E000BFAD2F97CD90DD90ED90FC9029A83AA841
:1017F000F9010190F081E02DF8ABEFA718AE1FAA18
:101800008FA998AD2596AEADBFAD25978A179B07DA
:101810000CF07AC06196AEADBFAD61978D919C9191
:10182000892B69F1EFA5F8A940805180628073800F
:10183000A7019601C301B2010E941F2787FD0BC0BB
:10184000A7019601D1016D917D918D919C910E948E
:10185000692687FD8CC0A7019601C301B2010E94D1
:101860001F27181664F4A7019601F10160817181A8
:10187000828193810E946926882309F478C0639647
:10188000AEADBFAD63978D919C91892B69F1EFA5AA
:10189000F8A94080518062807380A7019601C3013E
:1018A000B2010E94692687FF0BC0A7019601D101F2
:1018B0006D917D918D919C910E941F2787FF57C04C
:1018C000A7019601C301B2010E94692681110CC0D3
:1018D000A7019601F10160817181828193810E944B
:1018E0001F2718160CF443C02FA938AD2F5F3F4FA8
:1018F00038AF2FAB34E0230E311C4FA558A94C5FF5
:101900005F4F58AB4FA77CCFEDA9FEA960817181D5
:1019100023964EAD5FAD239789A99AA90E943729D6
:1019200025968EAD9FAD2597880F991F880F991F1B
:1019300029A93AA9280F391F3AAB29AB89AD9AAD2D
:10194000ABADBCAD0196A11DB11D89AF9AAFABAFD8
:10195000BCAFADADBEAD1496BEAFADAF07CF81E0AD
:1019600090E0D801D9969C938E93D89719C084E4BF
:10197000889DF001899DF00D1124EA52FD4F868D5E
:10198000978DA0A1B1A1892B8A2B8B2B09F064C262
:1019900084E090E0938B828B86AD97AD93A782A76E
:1019A00084E4889DF001899DF00D1124EA52FD4FD9
:1019B000828993898230910571F482AD93ADA4AD93
:1019C000B5AD181619061A061B060CF04CC2CC242D
:1019D000C394D12C05C0049709F045C2C12CD12C69
:1019E0008EE02196EEADFFAD21978E9F70018F9F07
:1019F000F00C112427962EAD3FAD2797E20EF31E73
:101A0000D70112964D915C9113974115510509F438
:101A10002AC216968D919C9117979AA789A7FE01C5
:101A2000319684E1DF011D928A95E9F7898A9A8AC5
:101A3000AB8ABC8AC114D10409F457C084E4889DE0
:101A4000F001899DF00D1124EA52FD4FDF01DE9671
:101A50004D905D906D907C9082AD93ADA4ADB5AD91
:101A6000481659066A067B0609F03FC0F7016481F3
:101A700075810084F185E02D84819581A681B781EF
:101A80009C018D8B9E8BAF8BB88F285F3F4F3E8B19
:101A90002D8BD70118968D919C911997280F391F7E
:101AA00019963C932E93189718968D919C9119979F
:101AB000460F571F841B950B97FD06C0860F971F77
:101AC00019969C938E93189784E4889DF001899DC4
:101AD000F00D1124EC5EFC4FB1E04B1A5108610887
:101AE000710840825182628273829E012B5E3F4F59
:101AF000AE01475D5F4F64E170E0C7010E940404DE
:101B0000082F10E00115110509F091C18CE090E05B
:101B1000A0E0B0E08D839E83AF83B8879E01235EF3
:101B20003F4FAE01475D5F4F64E070E0C7010E9428
:101B30000404082F10E00115110509F078C180E1B7
:101B400090E0A0E0B0E08D839E83AF83B8874D8D99
:101B50005E8DBE01655D7F4F8F8D98A10E943729F4
:101B60008BA19CA1009761F06D8D7E8DEBE2F0E082
:101B7000EC0FFD1F6E0F7F1F49A15AA10E9437294C
:101B80001DA21EA21FA218A621962EAD3FAD219721
:101B9000220F331F38AF2FAB24E4289DC001299DAD
:101BA000900D11248A529D4FAC014C5F5F4F5AAF8C
:101BB00049AFDC011896BEAFADAF2DA13EA14FA13C
:101BC00058A529AB3AAB4BAB5CABE9ADFAAD808124
:101BD0009181A281B381281739074A075B070CF06E
:101BE000CFC0ADADBEADED91FC9189A99AA9880F8A
:101BF000991F880F991FE80FF91FA081B1818C915F
:101C0000882309F4AFC0833009F4ACC00280F381AB
:101C1000E02D2FA938ADE20FF31F4081518158AB61
:101C20004FA7452B09F49EC089859A85AB85BC8555
:101C30000196A11DB11D89879A87AB87BC879E013C
:101C4000235E3F4FAE01475D5F4F64E070E0C70128
:101C50000E94040490E0009709F0E8C08D819E8105
:101C6000AF81B8850496A11DB11D8D839E83AF837E
:101C7000B8874D8D5E8DBE016B5D7F4F8F8D98A1B6
:101C80000E9437298BA19CA1009761F06D8D7E8DFC
:101C9000A5E2B0E0AC0FBD1F6A0F7B1F49A15AA19E
:101CA0000E9437291EAA1DAA412C512C3201EFA5F2
:101CB000F8A980819181A281B381481659066A06EC
:101CC0007B060CF04FC0EFA5F8A9248035802DA924
:101CD0003EA9220E331ED10112966D917C9113976D
:101CE0009E01235E3F4FAE01475D5F4FC7010E94DB
:101CF000040490E0009709F099C0F101828193817A
:101D0000092E000CAA0BBB0B4D815E816F8178857B
:101D1000840F951FA61FB71F8D839E83AF83B8873F
:101D2000608171814D8D5E8D8F8D98A10E943729C4
:101D30008BA19CA1009759F0D1016D917C912D8DC3
:101D40003E8D620F731F49A15AA10E943729BFEF30
:101D50004B1A5B0A6B0A7B0AEDA9FEA93496FEAB0F
:101D6000EDABA5CF49A85AA86BA87CA8FFEF4F1AE6
:101D70005F0A6F0A7F0A4DA25EA26FA278A61DCFEE
:101D800089859A85AB85BC85892B8A2B8B2B09F499
:101D90004EC08AE190E0A0E0B0E089839A83AB83F3
:101DA000BC8321962EAD3FAD2197C901330FAA0BFD
:101DB000BB0B8D879E87AF87B88B4D895E89BE012F
:101DC0006F5F7F4F8F89988D0E9437298B8D9C8DF7
:101DD000009761F06D897E8941E050E04C0F5D1FF6
:101DE000640F751F498D5A8D0E94372989A59AA5C0
:101DF000D70117969C938E93169711961C921E925C
:101E0000CD2889F184E4889DF001899DF00D11248D
:101E1000EC5EFC4F80819181A281B3810196A11D6E
:101E2000B11D80839183A283B3831DC08C01CD2813
:101E3000D1F4012BC1F084E4889DF001899DF00D5F
:101E40001124EA52FD4F81E090E095A784A785E038
:101E500090E0938B828B07C083E090E0938B828B22
:101E600081E090E09BCDCE5ADF4F0FB6F894DEBFF5
:101E70000FBECDBFDF91CF911F910F91FF90EF90DB
:101E8000DF90CF90BF90AF909F908F907F906F909A
:101E90005F904F903F902F900895CF92DF92EF92F6
:101EA000FF920F931F936B017C0184E48C9DF001E2
:101EB0008D9DF00D1124EA52FD4F82899389009780
:101EC00009F450C00197B9F482A593A59C012F5F36
:101ED0003F4F33A722A7092E000CAA0BBB0B028D84
:101EE000138D248D358D80179107A207B307D1F587
:101EF000C701B6010CDB84E48C9DF0018D9DF00DD3
:101F00001124EA52FD4F82899389039759F582A5DE
:101F100093A59C012F5F3F4F33A722A7092E000CEA
:101F2000AA0BBB0B468D578D60A171A18417950735
:101F3000A607B707BCF086AD97AD93A782A784E04C
:101F400090E0938B828B82AD93ADA4ADB5AD1816A6
:101F500019061A061B0634F4EE5BFF4F81E090E091
:101F6000918380831F910F91FF90EF90DF90CF902E
:101F7000089524E4269FF001279FF00D1124EA52D2
:101F8000FD4F828993890497B1F482A593A50196A8
:101F900093A782A7092E000CAA0BBB0B4689578971
:101FA000608D718D84179507A607B70721F485E02A
:101FB00090E0938B828B08952F923F924F925F9285
:101FC0006F927F928F929F92AF92BF92CF92DF9249
:101FD000EF92FF920F931F93CF93DF93CDB7DEB7AE
:101FE0002E970FB6F894DEBF0FBECDBF49835A833C
:101FF0006B837C834901442E552E24E4249DF001FB
:10200000259DF00D1124EA52FD4F2288338891015D
:1020100024503109158614862230310508F0DDC0C0
:10202000DC0111961C921E9213961C921E9212971E
:10203000A12CB12C60E070E09F01265F3F4F3887F4
:102040002F837F013CE0E30EF11CDF015096BA873D
:10205000A9879F01225F3F4F3C872B876815790531
:102060000CF06FC0EF81F885A081B1819D012A0D30
:102070003B1D3E872D87D9012D913C911197232B34
:1020800009F059C018960D911C9119971296ED916F
:10209000FC911397FE83ED8316962D913C91179733
:1020A000D7014D915C91DA01E3E0AA0FBB1FEA95DD
:1020B000E1F7E985FA85C080D180FD01EC0DFD1DB9
:1020C000440F551FAB85BC85CD90DC904C0D5D1D3C
:1020D000DA016D937C93D7014D915C9111974F5F1D
:1020E0005F4F4D935C9313830283AD85BE851B9632
:1020F0003C932E931A970217130748F4201B310BB9
:1021000031832083158214821782168214C0AD8514
:10211000BE851496CD90DC9015974D815E814C0D57
:102120005D1D401B510B518340832C193D093583A4
:102130002483D782C6826F5F7F4FBEE0AB0EB11C97
:102140008DCF24E4249D8001259D100D11240A5279
:102150001D4FF80124853585DC0111963C932E93A3
:102160004089518913965C934E9312974685578503
:1021700015965C934E931497232BA1F5B5E02B167F
:10218000310481F510925E03828D938DA48DB58DFF
:10219000AE014F5F5F4F64E070E08F3F9F4FAF4FE6
:1021A000BF4F59F480E290E00E94EF1969817A8173
:1021B0008B819C81A40100DA15C08FE190E00E9420
:1021C000EF19D8019B961C921E929A9781E090E09D
:1021D00053969C938E93529705C0FC0111821082F6
:1021E000138212822E960FB6F894DEBF0FBECDBFBB
:1021F000DF91CF911F910F91FF90EF90DF90CF90E3
:10220000BF90AF909F908F907F906F905F904F9016
:102210003F902F900895EF92FF920F931F93CF93CB
:10222000DF937C018B01EA010E94721A811121C0A7
:102230008091970190919801049711F183E090E0CB
:1022400090939801809397011BC098819111F0CFD2
:1022500028ED38EB45E050E060E070E0CB010E94F3
:10226000FC1CAE01B801C7010E940A1DC8010E94F2
:10227000D51C80915F0390916003892B31F3D8CFF7
:10228000DF91CF911F910F91FF90EF900895CF9321
:10229000DF9320919701309198012430310541F06E
:1022A000EB010E940A1DCE01DF91CF910C94D51C49
:1022B000DF91CF9108950C941D210C9412210C9460
:1022C00000210C94E51C0C94A420089560E070E0BB
:1022D00080E090E00C944D1A0895AF92BF92CF9297
:1022E000DF92EF92FF920F931F93CF93DF9300D073
:1022F000CDB7DEB75C0169017A018B0180E090E027
:10230000C114D104E104F104F1F0C114D10421E0BD
:10231000E206F10410F4A60102C04FEF5FEF9E0148
:102320002F5F3F4FB801C5010E94BD218F3F2FEFA6
:10233000920749F029813A81C21AD30AE108F108CB
:10234000020F131FDDCF0F900F90DF91CF911F91E0
:102350000F91FF90EF90DF90CF90BF90AF900895D6
:10236000089508951F920F920FB60F9211242F9384
:102370003F934F935F936F937F938F939F93AF930D
:10238000BF93EF93FF93E0919901F0919A01099522
:10239000FF91EF91BF91AF919F918F917F916F913D
:1023A0005F914F913F912F910F900FBE0F901F9013
:1023B00018951F920F920FB60F9211242F933F93EF
:1023C0004F935F936F937F938F939F93AF93BF933D
:1023D000EF93FF93E0919B01F0919C010995FF9190
:1023E000EF91BF91AF919F918F917F916F915F918D
:1023F0004F913F912F910F900FBE0F901F90189506
:102400001F920F920FB60F9211242F933F938F9329
:102410009F93AF93BF938091620390916303A091C8
:102420006403B09165033091610323E0230F2D37DE
:1024300020F40196A11DB11D05C026E8230F0296C8
:10244000A11DB11D209361038093620390936303E8
:10245000A0936403B0936503809166039091670332
:10246000A0916803B09169030196A11DB11D8093ED
:10247000660390936703A0936803B0936903BF91C9
:10248000AF919F918F913F912F910F900FBE0F9021
:102490001F9018953FB7F894809166039091670359
:1024A000A0916803B091690326B5A89B05C02F3F92
:1024B00019F00196A11DB11D3FBFBA2FA92F982F6A
:1024C0008827820F911DA11DB11DBC01CD0142E0E5
:1024D000660F771F881F991F4A95D1F708958F922D
:1024E0009F92AF92BF92CF92DF92EF92FF926B01D9
:1024F0007C01D0DF4B015C01C114D104E104F10483
:10250000F1F02EDFC7DFDC01CB0188199909AA0998
:10251000BB09883E9340A105B10570F321E0C21AC2
:10252000D108E108F10888EE880E83E0981EA11C0E
:10253000B11CC114D104E104F10421F7DDCFFF90F7
:10254000EF90DF90CF90BF90AF909F908F900895C5
:10255000789484B5826084BD84B5816084BD85B57E
:10256000826085BD85B5816085BDEEE6F0E0808145
:1025700081608083E1E8F0E0108280818260808366
:10258000808181608083E0E8F0E0808181608083E9
:10259000E1EBF0E0808184608083E0EBF0E080811B
:1025A00081608083EAE7F0E08081846080838081BD
:1025B0008260808380818160808380818068808365
:1025C0001092C1000895833081F028F4813099F091
:1025D0008230A1F008958730A9F08830B9F08430B6
:1025E000D1F4809180008F7D03C0809180008F772F
:1025F00080938000089584B58F7702C084B58F7D65
:1026000084BD08958091B0008F7703C08091B000A1
:102610008F7D8093B00008951F93CF93DF93282F71
:1026200030E0F901E857FF4F8491F901E456FF4F7C
:10263000D491F901E055FF4FC491CC23C1F0162F7E
:102640008111C1DFEC2FF0E0EE0FFF1FEC53FF4FC5
:10265000A591B4918FB7F894111105C09C91ED2FFD
:10266000E095E92302C0EC91ED2BEC938FBFDF9155
:10267000CF911F910895FC01918D228D892F90E0BB
:10268000805C9F4F821B91098F7399270895FC01ED
:10269000918D828D981731F0828DE80FF11D858D17
:1026A00090E008958FEF9FEF0895FC01918D828D4A
:1026B000981761F0828DDF01A80FB11D5D968C9196
:1026C000928D9F5F9F73928F90E008958FEF9FEFA1
:1026D0000895FC01848DDF01A80FB11DA35ABF4FDF
:1026E0002C91848D90E001968F739927848FA68911
:1026F000B7892C93A089B1898C9180648C93938D38
:10270000848D981306C00288F389E02D80818F7D27
:1027100080830895CF93DF93EC01888D8823C1F0E7
:10272000EA89FB89808185FD05C0A889B9898C91DA
:1027300086FD0EC00FB607FCF5CF808185FFF2CF76
:10274000A889B9898C9185FFEDCFCE01C2DFE8CF92
:10275000DF91CF910895EF92FF920F931F93CF9344
:10276000DF93EC0181E0888F9B8D8C8D981305C0E1
:10277000E889F989808185FD23C0F62E0B8D10E054
:102780000F5F1F4F0F731127E02E8C8DE8120BC0C7
:102790000FB607FCFACFE889F989808185FFF5CF6C
:1027A000CE0197DFF2CF8B8DFE01E80FF11DE35ACA
:1027B000FF4FF0820B8FEA89FB898081806207C01E
:1027C000EE89FF896083E889F9898081806480834C
:1027D00081E090E0DF91CF911F910F91FF90EF90FA
:1027E0000895CF92DF92EF92FF921F93CF93DF93E2
:1027F000EC016A017B01122FE889F98982E080836C
:102800004115514E61057105B1F060E079E08DE34D
:1028100090E0A70196010E949927DA01C90101976A
:10282000A109B109B695A79597958795AC01411572
:1028300080E15807A8F0E889F989108260E874E817
:102840008EE190E0A70196010E949927BA01A901A3
:1028500041505109610971097695679557954795DA
:10286000EC85FD855083EE85FF854083188EEC89CD
:10287000FD891083EA89FB89808180618083EA89F0
:10288000FB89808188608083EA89FB8980818068F8
:102890008083EA89FB8980818F7D8083DF91CF915E
:1028A0001F91FF90EF90DF90CF9008951F920F92AD
:1028B0000FB60F9211242F938F939F93EF93FF9353
:1028C000E0917A03F0917B038081E0918003F091A5
:1028D000810382FD12C09081809183038F5F8F738B
:1028E00020918403821751F0E0918303F0E0E659D0
:1028F000FC4F958F8093830301C08081FF91EF91FE
:102900009F918F912F910F900FBE0F901F90189550
:102910001F920F920FB60F9211242F933F934F9354
:102920005F936F937F938F939F93AF93BF93EF9337
:10293000FF938AE693E0CDDEFF91EF91BF91AF91D7
:102940009F918F917F916F915F914F913F912F91C7
:102950000F900FBE0F901F901895EAE6F3E01382D8
:10296000128288EE93E0A0E0B0E084839583A68392
:10297000B78385E492E09183808385EC90E095872E
:10298000848784EC90E09787868780EC90E0918B39
:10299000808B81EC90E0938B828B82EC90E0958B26
:1029A000848B86EC90E0978B868B118E128E138E23
:1029B000148E08958F929F92AF92BF92CF92DF9222
:1029C000EF92FF920F931F93CF93DF937C018B01C4
:1029D0006C0182E0C80ED11C4701E5E08E0E911C0F
:1029E000C0E0D0E0F60161916F014AE050E0C8011B
:1029F000C6D05C016EE2C80167D08A0D9B1DC80F6E
:102A0000D91FC814D90471F74AE050E0F701658175
:102A1000C801B5D08C0F9D1FDF91CF911F910F91F1
:102A2000FF90EF90DF90CF90BF90AF909F908F90EE
:102A30000895E7E0F4E085E592E0918380831282D7
:102A40001382148215820895CF92DF92EF92FF9243
:102A50000F931F93CF93DF936C017A018B01C0E03A
:102A6000D0E0CE15DF0589F0D8016D918D01D6013A
:102A7000ED91FC910190F081E02DC6010995892B23
:102A800011F47E0102C02196ECCFC701DF91CF91F6
:102A90001F910F91FF90EF90DF90CF9008956115F7
:102AA000710579F0FB0101900020E9F73197AF0142
:102AB000461B570BDC01ED91FC910280F381E02D68
:102AC000099480E090E00895DC01ED91FC91019083
:102AD000F081E02D09944F925F926F927F92EF9276
:102AE000FF920F931F93CF93DF93CDB7DEB7A197DC
:102AF0000FB6F894DEBF0FBECDBF7C01FA01CB014B
:102B000019A2223008F42AE08E010F5D1F4F422ED9
:102B1000512C612C712CBF01A30192010E949927B5
:102B2000F901CA01015011096A3014F4605D01C055
:102B3000695CD8016C93232B242B252B61F7B801FA
:102B4000C701ADDFA1960FB6F894DEBF0FBECDBFB3
:102B5000DF91CF911F910F91FF90EF907F906F9039
:102B60005F904F9008952115310541F4DC01ED91FE
:102B7000FC910190F081E02D642F0994ACCF9A0173
:102B8000462F50E060E070E0EECF813039F018F071
:102B9000823051F0089510926E00089580916F0078
:102BA0008D7F80936F000895809170008D7F80935A
:102BB000700081E08093B0008091B100887F8460D4
:102BC0008093B1001092B3000895CF93C82F8091E5
:102BD0009D018C1307C0EEECF0E0E4918FEF809341
:102BE0009D0101C0EFEF8E2FD0DF60E08C2FCF91E1
:102BF00013CD1F920F920FB60F9211242F933F9374
:102C00004F935F936F937F938F939F93AF93BF93F4
:102C1000EF93FF938091100490911104A0911204FE
:102C2000B0911304892B8A2B8B2B51F180910D04C9
:102C3000E0910E04F0910F049081892780838091A8
:102C4000100490911104A0911204B091130418166D
:102C500019061A061B06BCF4809110049091110409
:102C6000A0911204B09113040197A109B1098093B6
:102C7000100490931104A0931204B093130403C0A2
:102C800080919D01A2DFFF91EF91BF91AF919F9144
:102C90008F917F916F915F914F913F912F910F9005
:102CA0000FBE0F901F90189540E855E260E070E06D
:102CB00080E090E000C026E08AE693E092CD1F928B
:102CC0000F920FB60F9211242F933F934F935F9360
:102CD0006F937F938F939F93AF93BF93EF93FF93E4
:102CE00086E997EE90938500809384000E945C258E
:102CF000FF91EF91BF91AF919F918F917F916F91D4
:102D00005F914F913F912F910F900FBE0F901F90A9
:102D1000189586E997EE9093850080938400AFE63E
:102D2000B0E08C918E7F8C93E0E8F0E080818C7F26
:102D30008083E1E8F0E08081877E80838081846009
:102D4000808380818C7F80838C9181608C930895B7
:102D500081E008956F927F928F929F92AF92BF927F
:102D6000CF92DF92EF92FF920F931F93CF93DF9357
:102D70005C017B014A0101E010E00E151F0564F5BE
:102D800068018FEFC81AD80AE801CC0FDD1FC80D03
:102D9000D91D6880798061147104E1F067E572E003
:102DA000C3010E944729892B19F41982188212C085
:102DB0006AE572E0C3010E944729892B59F4CE14B9
:102DC000DF0441F06801E2E0CE0ED11C19821882C6
:102DD0001B821A828601D1CF81E0F5018083B40184
:102DE000C7010E944821F5019283818380E090E031
:102DF000DF91CF911F910F91FF90EF90DF90CF90D7
:102E0000BF90AF909F908F907F906F90089584E1D6
:102E100094E0089580E008950F931F93CF93DF937C
:102E20008B01BA01E901198218829801012E000C68
:102E3000440B550BFC01818192814FDA019621F000
:102E40001983088380E001C081E0DF91CF911F9159
:102E50000F9108950F931F93CF93DF9300D0CDB7B9
:102E6000DEB7FB018A01B9019E012F5F3F4FAF0121
:102E7000FC01818192810E945F21019639F0898154
:102E80009A81F8019183808380E001C081E00F90F6
:102E90000F90DF91CF911F910F910895FC018081D8
:102EA00008950895089581E0FB01808380E00895EE
:102EB000089510923E040895FC01818192810C9442
:102EC0003F21CF93DF93CDB7DEB72A970FB6F894A3
:102ED000DEBF0FBECDBFAC01CB0160E070E0498327
:102EE0005A836B837C83092E000CAA0BBB0B8D834A
:102EF0009E83AF83B8879E01275F3F4FAE014F5F30
:102F00005F4F68E070E080912D0490912E0484DF83
:102F1000811108C081E029853A852830310519F4EE
:102F200080E001C081E02A960FB6F894DEBF0FBEA4
:102F3000CDBFDF91CF9108950F931F93CF93DF9370
:102F400000D0CDB7DEB78B019E012F5F3F4FAC01A4
:102F500080912D0490912E045FDF811108C081E0E3
:102F600029813A812017310719F480E001C081E0FE
:102F70000F900F90DF91CF911F910F910895CF93F4
:102F8000DF93EC01109231041092300410923D0452
:102F900010923C04AC0160E070E0CB010E94DC0ABE
:102FA000AE0161E070E080E090E00E94DC0A809178
:102FB0002D0490912E04DF91CF917ACF4F925F92A2
:102FC0006F927F928F929F92AF92BF92CF92DF9239
:102FD000EF92FF920F931F93CF93DF9300D0CDB763
:102FE000DEB79C016C0197FF03C087E0C80ED11CBF
:102FF00043E0D594C7944A95E1F7C90168E070E0D1
:103000000E9486277C0189010E5F1F4F80912B044F
:1030100090912C04801791070CF0DCC0809129045A
:1030200090912A04009731F00E949F2810922C045E
:1030300010922B04C8010E940A2890932A048093BE
:103040002904892B29F010932C0400932B04C2C06F
:10305000A12CB12CAC14BD040CF05EC0412C512C41
:10306000320100E010E098012E5C3B4FAE014F5F53
:103070005F4F61E070E080912D0490912E04EADEB4
:10308000811198C189819A812FEF421A520A620AEE
:10309000720A20E942162FE5520621E06206710409
:1030A0003CF060913C0470913D048DEE90E02DC0A9
:1030B000080F191F0A30110551F549E050E060E092
:1030C00070E082E394E00E94E92160913C047091F9
:1030D0003D048823C1F080913A0490E06817790795
:1030E00009F0B8CF8EEE90E0ECDE80913C04909138
:1030F0003D040196992790933D0480933C048FEF03
:10310000A81AB80AA7CF8FEE90E0DBDEA7CF0A306F
:1031100011050CF4A8CF9ECFEF2809F44BC1C12CA8
:10312000D12C760100E010E098012E5C3B4FAE01FF
:103130004F5F5F4F61E070E080912D0490912E040D
:1031400089DE811137C189819A812FEFC21AD20A93
:10315000E20AF20A20E9C2162FE5D20621E0E206D1
:10316000F1043CF060913C0470913D048DEE90E0E0
:103170002AC0080F191F0A30110539F549E050E03F
:1031800060E070E082E394E00E94E92160913C04F9
:1031900070913D048823A9F080913A0490E068176B
:1031A000790709F007C18EEE90E08BDE80913C0438
:1031B00090913D040196992790933D0480933C049F
:1031C000F9C08FEE90E07DDEAACF0A3011050CF435
:1031D000ABCFF0C000E010E00C151D050CF077C07F
:1031E000412C512C3201A12CB12C480193E0880CC8
:1031F000991C9A95E1F72091290430912A04C40181
:103200008A0D9B1D280F391FAE014F5F5F4F61E094
:1032100070E080912D0490912E041CDE8111CAC0B3
:1032200089819A812FEF421A520A620A720A20E9B2
:1032300042162FE5520621E0620671043CF06091CF
:103240003C0470913D048DEE90E034C0A80EB91E90
:103250008AE0A816B104A9F549E050E0B4018091D4
:10326000290490912A040E94E92160913C04709104
:103270003D048823E9F08091290490912A04FC01FF
:10328000E80DF91D808590E06817790709F0A4CF53
:103290008EEE90E016DE80913C0490913D04019604
:1032A000992790933D0480933C040F5F1F4F94CF68
:1032B0008FEE90E006DE412C512C3201A12CB12C76
:1032C0009ACF2AE0A216B1040CF495CF85CFE11471
:1032D000F10409F46AC0680183E0CC0CDD1C8A9516
:1032E000E1F7812C912C540100E010E098012E5C54
:1032F0003B4FAE014F5F5F4F61E070E080912D0466
:1033000090912E04A7DD811155C089819A812FEFFC
:10331000821A920AA20AB20A20E982162FE59206C0
:1033200021E0A206B1043CF060913C0470913D04A0
:103330008DEE90E034C0080F191F0A30110589F591
:1033400049E050E060E070E082E394E00E94E9210F
:1033500060913C0470913D048823F9F080913A0417
:1033600090E06817790709F58EEE90E0AADD80916C
:10337000290490912A04A70162E374E08C0D9D1D3D
:103380000E94372980913C0490913D040196992731
:1033900090933D0480933C0408C08FEE90E091DD53
:1033A000A0CF0A3011050CF4A1CF8091290490918F
:1033B0002A0402C080E090E00F900F90DF91CF913F
:1033C0001F910F91FF90EF90DF90CF90BF90AF9043
:1033D0009F908F907F906F905F904F900895CF92C5
:1033E000DF92EF92FF920F931F93CF93DF931F9281
:1033F000CDB7DEB76C017B018A01452B31F0AB0103
:1034000060E070E0C801E1D78983B701C60159DDEA
:1034100081110DC00115110551F0B701C8018CDDF6
:10342000811105C061E070E0CE01019685DD0F904D
:10343000DF91CF911F910F91FF90EF90DF90CF9090
:103440000895CF92DF92EF92FF92CF93DF93CDB7A3
:10345000DEB728970FB6F894DEBF0FBECDBF6B0165
:10346000E12CF12CC982DA82EB82FC822D833E832F
:103470004F835887AE014F5F5F4F68E070E0AFDF6A
:1034800028960FB6F894DEBF0FBECDBFDF91CF9167
:10349000FF90EF90DF90CF9008950F931F93CF93FD
:1034A000DF93EC018B01B3DC90932E0480932D0409
:1034B000009739F0A801BE014DDCEC01892B19F40D
:1034C0000BC0C6E6D2E080912D0490912E04E9DC79
:1034D00010922E0410922D04CE01DF91CF911F91F6
:1034E0000F91089580912D0490912E04D7CC2F92A6
:1034F0003F924F925F926F927F928F929F92AF9284
:10350000BF92CF92DF92EF92FF920F931F93CF93D0
:10351000DF93CDB7DEB769970FB6F894DEBF0FBE65
:10352000CDBF20913104222309F426C25D8B4C8B40
:10353000688B798B8A8B9B8B9A01AB01BC01CE0186
:1035400001960E94DC0F10E038E0232E312C898197
:103550009A81181619060CF00AC21F861E861D864F
:103560001C8689819A81AC85BD85A817B9070CF0A6
:10357000F3C1EB81FC812E853F85E20FF31F208193
:10358000318130932804209327048481958190937E
:103590002604809325044281538150932404409350
:1035A0002304468157815093220440932104820FC3
:1035B000931F9C01990F440B550B2E8B3F8B488F0B
:1035C000598FC12CD12C76012E893F89488D598D78
:1035D000C216D306E406F50608F0A2C11F82609168
:1035E0002704709128048B01072E000C220B330B4B
:1035F000D701C6010496A11DB11D80179107A2072E
:10360000B30728F4E0912304F09124040AC0E4E015
:10361000F0E0E61BF70BEC0DFD1D8091210490916D
:103620002204E80FF91F4080512C612C712CD70126
:10363000C6010596A11DB11D80179107A207B3070A
:1036400028F4E0912304F09124040AC0E5E0F0E0BE
:10365000E61BF70BEC0DFD1D8091210490912204D7
:10366000E80FF91F8081582AD701C6010696A11DCF
:10367000B11D80179107A207B30728F4E091230436
:10368000F09124040AC0E6E0F0E0E61BF70BEC0D35
:10369000FD1D8091210490912204E80FF91F808183
:1036A000682AD701C6010796A11DB11D8017910791
:1036B000A207B30728F4E0912304F09124040AC080
:1036C000E7E0F0E0E61BF70BEC0DFD1D8091210417
:1036D00090912204E80FF91F8081782A4601570152
:1036E00048E0840E911CA11CB11C081519052A057F
:1036F0003B0508F4B4C0C016D106E206F30638F460
:1037000080912304909124048C0D9D1D09C0C60155
:10371000861B970B2091210430912204820F931F66
:1037200068E070E009DCE0912704F09128049F0133
:103730000F2E000C440B550BD301C201880D991DAF
:10374000AA1DBB1D281739074A075B07C8F0821658
:103750009306A406B50638F420912304309124047E
:10376000C601089609C0C1018E1B9F0B8C0D9D1DC3
:103770002091210430912204820F931FB20199C03D
:103780008601BF01685071096C197D098216930684
:10379000A406B50638F42091230430912404C60110
:1037A000089609C0C1018E1B9F0B8C0D9D1D209199
:1037B000210430912204820F931FBEDB80912704E5
:1037C00090912804B101681B790B600F711F640D83
:1037D000751D8091210490912204AEDB8091270415
:1037E00090912804AC0148505109FA01E01BF10BFB
:1037F000AC01092E000C660B770B84169506A60605
:10380000B70638F42091230430912404C6010896A9
:103810000AC09101281B390BC9018C0D9D1D2091F7
:10382000210430912204820F931FAF0160E070E009
:10383000CCD58F832091270430912804A101421B0D
:10384000530B9A01200F311F240D351D40E050E02D
:10385000682F8091210490912204A3D550C0C016F6
:10386000D106E206F306C8F46C197D0980912304A1
:10387000909124048C0D9D1D5FDB80912704909115
:103880002804B101681B790B6C0D7D1D640D751D3D
:1038900080912104909122040CC0C601861B970BD5
:1038A0002091210430912204B201685F7F4F820F82
:1038B000931F42DB8091270490912804AC01092ECC
:1038C000000C660B770B84169506A606B70638F42F
:1038D0002091230430912404C60108960AC0D10126
:1038E000A81BB90BCD018C0D9D1D20912104309199
:1038F0002204820F931FA20160E070E066D58F83DF
:1039000061E070E0CE01079617DB182FB8E04B0E90
:10391000511C611C711CC40CD51CE61CF71C54CE38
:103920008C859D85880F991FED81FE81E80FF91F19
:10393000488959896A897B89808191810E940E0B0F
:103940004C855D854F5F5F4F5D874C878E859F857A
:1039500008969F878E8705CE2C893D89488959898D
:103960006A897B89CE0101960E94DC0FF0CD11237C
:1039700019F08C899D8903DB69960FB6F894DEBF38
:103980000FBECDBFDF91CF911F910F91FF90EF90B0
:10399000DF90CF90BF90AF909F908F907F906F906F
:1039A0005F904F903F902F900895CF93DF93EC015D
:1039B000AC0160E070E0CB019ADDAE0161E070E047
:1039C00080E090E0DF91CF9192CDCF9380912D0454
:1039D00090912E041FDAC82F81110BC060E070E0B7
:1039E000CB010E94DE0561E070E080E090E00E9483
:1039F000DE058C2FCF9108950F931F9389019A01B3
:103A0000AB01BC0180912D0490912E044BDA1F91E3
:103A10000F9108953F924F925F926F927F928F9293
:103A20009F92AF92BF92CF92DF92EF92FF920F934D
:103A30001F93CF93DF93CDB7DEB767970FB6F89498
:103A4000DEBF0FBECDBF6C017B015A0180913104F6
:103A5000882331F080913104882309F45DC30AC0C2
:103A600061E374E080912D0490912E041CDA8111A1
:103A700053C3F0CF809130041A821982882309F44D
:103A80006AC0E0E94E2EEFE55E2E66246394712C49
:103A900000E010E09801295E3B4FAE014F5F5F4FA1
:103AA00061E070E080912D0490912E04D3D9982E7E
:103AB00081114DC089819A81080F191F01151105C7
:103AC00009F445C081E0481A51086108710839F4C9
:103AD00060913C0470913D048DEE90E030C00A305E
:103AE000110589F549E050E060E070E087E194E07D
:103AF00070D460913C0470913D048823F1F0809172
:103B00001F0490E068177907D9F48EEE90E0D9D9B8
:103B100088E0E7E1F4E0DE01199601900D928A95C4
:103B2000E1F720913C0430913D042F5F3F4F332754
:103B300030933D0420933C040AC08FEE90E0C1D93D
:103B40001A82198204C00A3011050CF4A3CF81E057
:103B500029813A8124C000E010E078E0672E712CC2
:103B600029E030E02C0F3D1F200F311FAE014F5FC9
:103B70005F4FB301601B710B80912D0490912E0457
:103B800069D9982E29813A81811108C0020F131F2B
:103B90000115110519F00830110514F381E0121612
:103BA00013060CF080E09110B4C2882309F4B4C26B
:103BB00080913004811104C019861A861B861C86E8
:103BC00089859A85AB85BC858031910508F0A4C2B2
:103BD000FC01EC5CFF4F0C94BB27D6011696ED91CF
:103BE000FC91179780819181A281B38189839A8307
:103BF000AB83BC83AE014F5F5F4F64E070E085E153
:103C000090E07FC18D859E85D9D9009731F42FEF43
:103C10003FEFA90161E070E00EC0FC01808091805F
:103C2000A280B380A701C501B4010E94870AA50143
:103C3000940160E070E08DE190E069C28D859E8521
:103C4000BDD9009721F42FEF3FEFA90110C0DC018F
:103C50008D909D90AD90BD90AD0195018401B7010F
:103C6000C6010E942307A5019401882319F061E091
:103C700070E002C060E070E08BE190E048C28D85AA
:103C80009E859CD9009721F42FEF3FEFA9010FC02B
:103C9000FC0181909190A190B190BF01A501940188
:103CA000C6010E942C09A5019401882319F061E046
:103CB00070E002C060E070E08CE190E028C2D601C4
:103CC0001496ED91FC91159700811181F801828085
:103CD0009380A080B18060E1462E512C612C712C24
:103CE00049825A826B827C8288E090E0A0E0B0E05A
:103CF0008D839E83AF83B8879E012F5E3F4FAE01B9
:103D00004F5F5F4F68E070E080912D0490912E042A
:103D100083D8882319F000E010E0BBC089899A8914
:103D20000897C9F7D801ED90FC90B8E0EB0EF11CB4
:103D3000EE0CFF1CEE0CFF1CC7010E940A288C0130
:103D4000892B49F349825A826B827C82C7010F2CEE
:103D5000000CAA0BBB0B8D839E83AF83B8879E019B
:103D60002F5E3F4FAE014F5F5F4F68E070E0809184
:103D70002D0490912E0450D881118BC089899A8985
:103D8000089709F086C0D6011296ED91FC91139721
:103D90004081518162817381D8014D935D936D9310
:103DA0007C931397448155816681778114964D9356
:103DB0005D936D937C9317974085518562857385DC
:103DC00018964D935D936D937C931B978485958591
:103DD000A685B785F80184879587A687B787108A57
:103DE000118A128A138A84E090E0A0E0B0E0848B0C
:103DF000958BA68BB78B8091970190919801A0E04D
:103E0000B0E0808F918FA28FB38FC5010B2C000C77
:103E1000AA0BBB0B848F958FA68FB78FF401D801A7
:103E2000909680E090E08A159B0554F44191519161
:103E300060E070E04D935D936D937D930196F3CFB9
:103E40009E012F5E3F4FA801B70180912D049091F4
:103E50002E040E940C1781111CC089899A898E1525
:103E60009F05B9F4A70160E070E0C801AED28B8B6A
:103E70009E012F5E3F4FAE014D5E5F4F61E070E0EF
:103E800080912D0490912E040E940C1781E0809364
:103E90003004C80167960FB6F894DEBF0FBECDBFE1
:103EA000DF91CF911F910F91FF90EF90DF90CF9016
:103EB000BF90AF909F908F907F906F905F904F904A
:103EC0003F900C949F288D859E85AF85B88900977B
:103ED000A105B10521F481E080932F041DC16ED8A6
:103EE000009789F481E090E0A0E0B0E089839A83B4
:103EF000AB83BC83AE014F5F5F4F64E070E082E153
:103F000090E06DDA09C1BC01C6010E94300519823A
:103F10001A821B821C82AE014F5F5F4F64E070E02B
:103F200082E190E05CDA8111F7C0D5CFD60114961A
:103F3000ED91FC9115970190F081E02D00851185A0
:103F40008FEF89830115110509F472C0D8016D90B6
:103F50007C90A280B38020E030E060E070E080E000
:103F600090E0861597050CF5F801A281B381A20FA8
:103F7000B31F1296ED91FC911397EE0FFF1FEA0D00
:103F8000FB1D0190F081E02D16960D90BC91A02DA7
:103F9000EA9FA001EB9F500DFA9F500D1124640F72
:103FA000751F0196285F3F4FDCCF83E190E00E94B0
:103FB00061178111B1C0C12CD12CE12CF12CE61478
:103FC000F7047CF5D8011296ED91FC911397EC0D56
:103FD000FD1D80809180A281B381AA0FBB1FAA0D15
:103FE000BB1D2D913C9186819781289F2001299F9F
:103FF000500C389F500C1124B201C4010E949C1730
:10400000382E920140E050E06981C401CAD1898311
:10401000B8E0CB0ED11C31107FC0EFEFEE1AFE0AD4
:10402000CECF61E070E0CE0101960E949C1774C073
:1040300060E070E083E190E00E9461176DC040E0B5
:1040400050E060E070E081E190E0C9D9811164C086
:10405000812C912C5401C501B4010E940A07809162
:104060005E03882321F0A701C501B40140DAA7014E
:10407000C501B4010E940A068A9489288A288B28DF
:1040800029F0812C912C54018394E5CF10923104B6
:104090001092300410923D0410923C0480912D0443
:1040A00090912E040E94591737C081E090E09093C0
:1040B000600380935F0340E050E060E070E086E1E1
:1040C00090E01FCF81E0D5018C9326C08D859E8521
:1040D0000E94DE17009731F42FEF3FEFA90161E056
:1040E00070E013C0FC012081318142815381CA01FB
:1040F000B9012C8B3D8B4E8B5F8B0E94E70A2C897C
:104100003D894E895F8960E070E08EE190E099D949
:1041100003C0C7010E94BF1767960FB6F894DEBFB1
:104120000FBECDBFDF91CF911F910F91FF90EF9008
:10413000DF90CF90BF90AF909F908F907F906F90C7
:104140005F904F903F900895CF92DF92EF92FF9251
:10415000CF93DF93EC01C12CD12C7601C701B601BE
:104160000E940A07AE01C701B601C1D9AE01C7015D
:10417000B6010E940A068091290490912A040097B2
:1041800029F0DDD710922A0410922904CA94CD2870
:10419000CE28CF2829F0C12CD12C7601C394DECFB4
:1041A00080913004882359F040E050E060E070E0F6
:1041B00084E190E014D9F82E1092300401C0F12C63
:1041C00080913104882341F01092310481E090E025
:1041D000909398018093970180912D0490912E04E3
:1041E0000E945C1780912D0490912E040E9451171B
:1041F0008F2DDF91CF91FF90EF90DF90CF900895BA
:10420000CF93DF93EC01AC0160E070E0CB010E9442
:104210004D0FAE0161E070E080E090E0DF91CF9162
:104220000C944D0F60E070E0CB010E94B90F61E08B
:1042300070E080E090E00C94B90FCF92DF92EF92A3
:10424000FF920F931F93CF93DF93EC016A017B01E1
:1042500000E010E098010E94370B01E010E020E040
:1042600030E0B701A601CE010E94370BDF91CF915C
:104270001F910F91FF90EF90DF90CF90089568EE1F
:1042800073E080E090E00E946F1280E090E008957B
:1042900026E040E050E16EE070E08AE693E00E94A4
:1042A000F1138AE693E00E943B13892B29F08AE6FA
:1042B00093E00E945513F5CF80E090E00895AF920F
:1042C000BF92CF92DF92EF92FF920F931F93CF9303
:1042D000DF9300D0CDB7DEB77A018901F9011182F1
:1042E00010828AE693E069837A830E943B13698196
:1042F0007A81892B99F15B01DD24D39485E6C82E60
:1043000080913E04811124C08AE693E00E945513F7
:1043100085369105A9F7D0923E04F501C1925F015F
:10432000F80180819181019691838083E9CF8AE6AB
:1043300093E00E9455138F3FFFEF9F0749F0F5016F
:1043400081935F01F801808191810196918380833F
:10435000F801808191818E159F0548F380E090E0FF
:104360000F900F90DF91CF911F910F91FF90EF90E1
:10437000DF90CF90BF90AF9008950F931F93CF938E
:10438000DF93EA0189018AE693E00E942415F8018F
:10439000D183C08380E090E0DF91CF911F910F9196
:1043A0000895DC01A40FB51F240F351FAD01481B74
:1043B000590B4217530738F4ED91E627F0E0E1532B
:1043C000FF4F6491F3CF862F08959A01AB016FEFF1
:1043D000E8CFCF93FC01E60FF71FE40FF51FC08174
:1043E000F4DF91E0C81390E0892FCF910895809178
:1043F0006F0490E020917004821B910908959091C0
:10440000700480916F04981750F4E92FF0E0EF5892
:10441000FB4F208130E09F5F9093700402C02FEF2C
:104420003FEFC9010895E091700480916F04E8178F
:1044300030F4F0E0EF58FB4F808190E008958FEF6B
:104440009FEF08950895CF92DF92EF92FF920F931E
:104450001F93CF93DF937C01262F972F8A018091A2
:104460004B04882391F0C62FD72F6E01C40ED51EA2
:10447000CC15DD0569F06991D701ED91FC910190B2
:10448000F081E02DC7010995F3CF642F822FB2D1BF
:10449000C801DF91CF911F910F91FF90EF90DF90B6
:1044A000CF900895CF93DF931F92CDB7DEB7698386
:1044B00020914B042223D1F020914C04203240F073
:1044C00021E030E0FC013383228380E090E014C0DF
:1044D00080914D04E82FF0E0E25BFB4F99819083DF
:1044E0008F5F80934D0480934C0404C061E0CE0143
:1044F000019680D181E090E00F90DF91CF910895F7
:10450000FC011382128288EE93E0A0E0B0E0848385
:104510009583A683B78385EA92E09183808308958B
:104520001092700410926F0410924D0410924C047B
:1045300085C0A2C0CB01BA01ACC081E080934B041E
:1045400060936E0410924D0410924C0408950F93E2
:10455000062F21E040914C046EE474E080916E04DB
:10456000F3D010924D0410924C0410924B040F9112
:1045700008954F925F926F927F92AF92BF92CF92C7
:10458000EF92FF920F931F93CF93DF935C01F62E70
:10459000D42F28013901EE2011F1CFDFCE2DC43008
:1045A00008F0C3E0C150C0F0D501ED91FC91B8E036
:1045B000CB9FC0011124A301920104C056954795D9
:1045C000379527958A95D2F7CA01B9010190F081F4
:1045D000E02DC5010995E6CF60E0C501B8DF4D2F9C
:1045E000D13208F040E22C2D61E774E08F2D64D0C9
:1045F0001092700480936F04DF91CF911F910F91FF
:10460000FF90EF90CF90BF90AF907F906F905F90B2
:104610004F900895CF92EF920F931F93C22EE12CEB
:1046200000E010E09801A5DF1F910F91EF90CF906F
:10463000089521E0EFCF8FE394E062CF1092FE0463
:1046400081E08093FC041092FB0461E082E10E940F
:104650000C1361E083E10E940C13E9EBF0E0808130
:104660008E7F808380818D7F808388E48093B800F3
:1046700085E48093BC000895ECEBF0E080818A7BB8
:10468000808360E082E10E940C1360E083E10C947F
:104690000C139B01AC0160E074E284EF90E049D41C
:1046A000DA01C9014097A109B109B695A795979577
:1046B00087958093B8000895413208F043C09091E7
:1046C000FE049111FCCF91E09093FE042093FC0432
:1046D0002FEF209391041092D604240F2093D50439
:1046E0009093FD049091FD04880F892B8093FD0425
:1046F0008091FB04813061F41092FB048091FD04F1
:104700008093BB008091BC0083FDF8CF85EC01C095
:1047100085EE8093BC008091FE048130E1F38091AE
:10472000D604841710F44091D60427ED34E0FB0141
:10473000D9018A2F821B841718F48D918193F9CFA8
:10474000842F089580E008950F93413208F04AC005
:104750009091FE049111FCCF32E03093FE0400935F
:10476000FC043FEF309391041092D6044093D5049B
:10477000FB0167ED74E0DB013A2F361B341718F4A8
:1047800031913D93F9CF1092FD043091FD04880FD3
:10479000832B8093FD048091FB04813061F410929F
:1047A000FB048091FD048093BB008091BC0083FDDD
:1047B000F8CF85EC01C085EE8093BC00222321F068
:1047C0008091FE048230D1F3809191048F3F79F083
:1047D00080919104803241F080919104803331F0D6
:1047E00094E005C091E003C092E001C093E0892FFE
:1047F0000F9108954091B304262F30E0240F311D0E
:1048000021323105DCF42091FE042430C9F4FC018E
:1048100080E090E0861758F43091B3042191DC01D8
:10482000AB54BB4FA30FB11D2C930196F3CF8091D6
:10483000B304680F6093B30480E0089581E00895A5
:1048400082E0089585ED8093BC008091BC0084FDDA
:10485000FCCF1092FE04089585EC8093BC0010926A
:10486000FE0408951F920F920FB60F9211242F93FA
:104870003F934F935F936F937F938F939F93AF93E8
:10488000BF93EF93FF938091B900887F803609F43E
:104890009DC070F5883209F45CC090F4803109F451
:1048A00055C038F4882309F4F3C0883009F44EC0A9
:1048B000F2C0883109F44DC0803209F45EC0EBC00B
:1048C000803409F469C050F4803309F456C0883349
:1048D00009F0E1C080939104BFDFDDC0803509F4A9
:1048E0004FC0883509F45DC0883409F0D4C0D2C007
:1048F000883909F4C3C0A8F4883709F467C038F4CC
:10490000883609F463C0803709F460C0C4C08838B1
:1049100009F4B4C0803909F45FC0803809F0BBC025
:104920005BC0803B09F482C038F4803A09F466C069
:10493000883A09F47BC0AFC0803C09F4A3C0883C2E
:1049400009F4A0C0883B09F486C0A5C08091FD048D
:1049500010C09091D6048091D504981770F5E0911D
:10496000D60481E08E0F8093D604F0E0E952FB4F2D
:1049700080818093BB0085EC82C0809391048AC0C3
:10498000E091D60481E08E0F8093D6048091BB0025
:10499000F0E0E952FB4F80839091D6048091D504DA
:1049A0006AC0E091D60481E08E0F8093D604809196
:1049B000BB00F0E0E952FB4F80838091FC04811141
:1049C00069C081E08093FB0484EA5DC083E080934A
:1049D000FE0410929204CFCF80919204803208F0AE
:1049E0004DC0E091920481E08E0F809392048091FB
:1049F000BB00F0E0ED56FB4F8083BDCF2DDF8091F3
:104A00009204803230F4E0919204F0E0ED56FB4FD6
:104A100010826091920470E0E091F704F091F80444
:104A200083E994E009951092920435C084E0809364
:104A3000FE041092B4041092B304E091F904F091D2
:104A4000FA0409958091B304811105C081E0809337
:104A5000B3041092B504E091B40481E08E0F80930A
:104A6000B404F0E0EB54FB4F80818093BB00909145
:104A7000B4048091B304981708F47DCF85E880933F
:104A8000BC0009C085EC8093BC001092FE0403C0FA
:104A900010929104D7DEFF91EF91BF91AF919F915A
:104AA0008F917F916F915F914F913F912F910F90D7
:104AB0000FBE0F901F9018958091000591E0980F00
:104AC00090930005882349F021E030E030930205FF
:104AD0002093010580930005089578940E940402B4
:104AE000F894809100058150809300050C945D112D
:104AF000FF920F931F93CF93DF9300D0CDB7DEB714
:104B0000FF24F394FA820E94A8120E945416009186
:104B10003F0210914002F8011182108260E070E0C3
:104B200080E090E00E9466110E941C037894C80106
:104B300082960E94651181E090E00E9461111982C5
:104B4000AE014F5F5F4F61E070E0F80182819381B9
:104B50000E940B118981882311F0F801F6A20E94AE
:104B60006C11F8940E948916F80180819181892B3B
:104B700019F481E096A1911180E08A837894789469
:104B8000FF24F3948A81882371F11982AE014F5F6B
:104B90005F4F61E070E0F801828193810E944711CC
:104BA0008981882311F0F801F6A2F80180819181B2
:104BB000892B31F481E096A1911103C080E001C0FE
:104BC00081E08093FF049091FF0481E0911180E0E7
:104BD0008A838A81882319F00E94A81602C080E087
:104BE00090E08A83CFCF0E94E70381E090E00E94AB
:104BF0006311F89480E090E00F900F90DF91CF91D7
:104C00001F910F91FF9008955058BB27AA270ED0EF
:104C1000DCC0CDD030F0D2D020F031F49F3F11F481
:104C20001EF4C2C00EF4E095E7FBB8C0E92FDED059
:104C300080F3BA17620773078407950718F071F4B9
:104C40009EF5F6C00EF4E0950B2EBA2FA02D0B01A9
:104C5000B90190010C01CA01A0011124FF27591BC1
:104C600099F0593F50F4503E68F11A16F040A22FC7
:104C7000232F342F4427585FF3CF46953795279538
:104C8000A795F0405395C9F77EF41F16BA0B620B37
:104C9000730B840BBAF09150A1F0FF0FBB1F661F7E
:104CA000771F881FC2F70EC0BA0F621F731F841FC1
:104CB00048F4879577956795B795F7959E3F08F0E7
:104CC000B3CF9395880F08F09927EE0F97958795A6
:104CD000089540D008F481E00895E89409C097FB56
:104CE0003EF490958095709561957F4F8F4F9F4FC3
:104CF0009923A9F0F92F96E9BB279395F695879507
:104D000077956795B795F111F8CFFAF4BB0F11F4C9
:104D100060FF1BC06F5F7F4F8F4F9F4F16C0882370
:104D200011F096E911C0772321F09EE8872F762FA6
:104D300005C0662371F096E8862F70E060E02AF0E7
:104D40009A95660F771F881FDAF7880F96958795D3
:104D500097F90895990F0008550FAA0BE0E8FEEFA8
:104D600016161706E807F907C0F012161306E4072F
:104D7000F50798F0621B730B840B950B39F40A2628
:104D800061F0232B242B252B21F408950A2609F406
:104D9000A140A6958FEF811D811D089597F99F670A
:104DA00080E870E060E008959FEF80EC08950024B3
:104DB0000A941616170618060906089500240A9480
:104DC00012161306140605060895092E0394000C06
:104DD00011F4882352F0BB0F40F4BF2B11F460FF95
:104DE00004C06F5F7F4F8F4F9F4F089557FD9058BE
:104DF000440F551F59F05F3F71F04795880F97FB9F
:104E0000991F61F09F3F79F0879508951216130658
:104E10001406551FF2CF4695F1DF08C01616170687
:104E20001806991FF1CF86957105610508940895BC
:104E3000E894BB2766277727CB0197F908958ADF87
:104E400008F48FEF08950BD0C0CFB1DF28F0B6DFA4
:104E500018F0952309F0A2CFA7CF1124EACFC6DF1F
:104E6000A0F3959FD1F3950F50E0551F629FF0017D
:104E7000729FBB27F00DB11D639FAA27F00DB11DD6
:104E8000AA1F649F6627B00DA11D661F829F22275F
:104E9000B00DA11D621F739FB00DA11D621F839FE6
:104EA000A00D611D221F749F3327A00D611D231FBC
:104EB000849F600D211D822F762F6A2F11249F570A
:104EC00050408AF0E1F088234AF0EE0FFF1FBB1F2D
:104ED000661F771F881F91505040A9F79E3F5105CC
:104EE00070F05CCFA6CF5F3FECF3983EDCF3869585
:104EF00077956795B795F795E7959F5FC1F7FE2B77
:104F0000880F911D9695879597F9089597FB072E21
:104F100016F4009406D077FD08D04ED007FC05D0DB
:104F20003EF4909581959F4F0895709561957F4FC0
:104F30000895A1E21A2EAA1BBB1BFD010DC0AA1FDA
:104F4000BB1FEE1FFF1FA217B307E407F50720F0F2
:104F5000A21BB30BE40BF50B661F771F881F991F6D
:104F60001A9469F760957095809590959B01AC01B6
:104F7000BD01CF010895EE0FFF1F0590F491E02DC4
:104F8000099405D0332312F48A1B9B0B10C0A29FF7
:104F9000B001B39FC001A39F700D811D1124911D0D
:104FA000B29F700D811D1124911D0895F0DFB7FF90
:104FB0000895821B930B0895AA1BBB1B51E107C0E8
:104FC000AA1FBB1FA617B70710F0A61BB70B881F99
:104FD000991F5A95A9F780959095BC01CD01089528
:104FE0000F931F93CF93DF93869F8001879F100DB0
:104FF000969F100D1124C8010DD0EC01009721F0EF
:10500000A80160E070E03CD1CE01DF91CF911F910B
:105010000F910895CF93DF938230910510F482E0D1
:1050200090E0E0915005F091510520E030E0C0E0C3
:10503000D0E0309711F14081518148175907C0F0F5
:105040004817590761F482819381209719F09B8357
:105050008A832BC0909351058093500526C021155B
:10506000310519F04217530718F49A01BE01DF0108
:10507000EF010280F381E02DDCCF2115310509F12C
:10508000281B390B2430310590F412968D919C9198
:1050900013976115710521F0FB019383828304C08E
:1050A0009093510580935005FD01329644C0FD0157
:1050B000E20FF31F81939193225031092D933C937A
:1050C0003AC020914E0530914F05232B41F4209199
:1050D00002013091030130934F0520934E0520913A
:1050E0000001309101012115310541F42DB73EB782
:1050F0004091040150910501241B350BE0914E05B0
:10510000F0914F05E217F307A0F42E1B3F0B281771
:10511000390778F0AC014E5F5F4F2417350748F030
:105120004E0F5F1F50934F0540934E05819391930F
:1051300002C0E0E0F0E0CF01DF91CF9108950F933E
:105140001F93CF93DF93009709F48CC0FC01329733
:10515000138212820091500510915105011511051D
:1051600081F420813181820F931F20914E0530916F
:105170004F052817390779F5F0934F05E0934E0551
:1051800071C0D80140E050E0AE17BF0750F412964E
:105190002D913C911397AD012115310509F1D901EC
:1051A000F3CF9D01DA013383228360817181860F01
:1051B000971F8217930769F4EC0128813981260F24
:1051C000371F2E5F3F4F318320838A819B819383DA
:1051D0008283452B29F4F0935105E093500542C09A
:1051E0001396FC93EE931297ED01499159919E010C
:1051F000240F351FE217F30771F480819181840F2A
:10520000951F029611969C938E938281938113969B
:105210009C938E931297E0E0F0E0D80112968D9166
:105220009C911397009719F0F8018C01F6CF8D919E
:105230009C9198012E5F3F4F820F931F20914E0546
:1052400030914F052817390769F4309729F41092E7
:1052500051051092500502C01382128210934F051F
:1052600000934E05DF91CF911F910F910895FB019F
:10527000DC0102C001900D9241505040D8F70895D2
:10528000DC0101C06D9341505040E0F70895FB01EF
:10529000DC018D91019080190110D9F3990B0895CB
:0452A000F894FFCFB0
:1052A4000000520580000100000000003F040300DC
:1052B40012018A01000000000200920110000000A7
:1052C400010094010E000000010002002E012305DC
:1052D4000000000001000305120000000100B201FB
:1052E400B901C301C201CB01CA01D401D301DC015C
:1052F400E601F101F70101020A02C301CB01CB016E
:10530400D4011E0204000400010001000200020096
:10531400040004000100040002000200040008006C
:1053240001000200020004002000CDCCCC3DB81ED8
:10533400124260604001010100B111B111FF5369D3
:105344006D756C6174696F6E2066696E69736865EA
:1053540064007265616C5F54007265616C33325F26
:10536400540075696E74385F540075696E74313613
:105374005F540075696E7433325F5400626F6F6CF2
:1053840065616E5F540066636E5F63616C6C5F544D
:1053940000696E745F5400706F696E7465725F5457
:1053A40000616374696F6E5F540074696D65725F48
:1053B40075696E7433325F706169725F5400636F34
:1053C4006465727461726765745F61726475696E35
:1053D4006F626173655F696E745F615F540001277A
:1053E4000500000000AB1324153B13551347138A23
:1053F4001300000000DA142D77002D69676E6F72B8
:10540400652D61726700436F756C64206E6F742044
:105414006372656174652065787465726E616C2071
:105424006D6F6465207573657220646174612E20EC
:10543400204F7574206F66206D656D6F72792E0A2A
:10544400000000000052222322F721FF2113222210
:02545400220034
:00000001FF
